S00C0000746573742E7372656358
S11300000C942A000C943F000C943F000C943F0085
S11300100C943F000C943F000C943F000C943F0060
S11300200C943F000C943F000C943F000C943F0050
S11300300C943F000C943F000C943F000C943F0040
S11300400C943F000C943F000C943F000C943F0030
S11300500C943F0011241FBECFE5D8E0DEBFCDBF16
S113006010E0A0E6B0E0E8E4F2E002C005900D92F2
S1130070AC39B107D9F70E94E8000C9422010C9422
S1130080000098B39F70282F207F922B98BB98B3C1
S11300909E7F98BB98B3926098BB32E03A95F1F793
S11300A000C098B39D7F98BBEFE8F1E03197F1F77A
S11300B000C0000028B3F0E18F9FC0011124922FEB
S11300C09F70892B88BB88B3826088BB32E03A95E5
S11300D0F1F700C088B38D7F88BB8FE99FE001975B
S11300E0F1F700C00000089598B39F70282F207F77
S11300F0922B98BB98B3916098BB98B3926098BBCD
S113010032E03A95F1F700C098B39D7F98BBEFE8D1
S1130110F1E03197F1F700C0000028B3F0E18F9FC0
S1130120C0011124922F9F70892B88BB88B38260F1
S113013088BB32E03A95F1F700C088B38D7F88BB65
S11301408FE99FE00197F1F700C0000008958FEF59
S113015087BB8FE39CE90197F1F700C0000082E0C0
S11301600E94410088E20E9441008CE00E9441000C
S113017086E00E94410081E00E9441008FE99FE0F7
S11301800197F1F700C0000008950F931F93CF93D8
S1130190DF938C01C0E0D0E003C00E94740021967C
S11301A0F801EC0FFD1F80818111F7CFDF91CF9112
S11301B01F910F91089581E00E9441008FE99FE013
S11301C00197F1F700C0000080E80E944100089503
S11301D00E94A70081B38B7F81BB8FEF84BB829B7E
S11301E018C015BA80E690E00E94C50080EC0E9419
S11301F041008EE690E00E94C5002FEF80E792E078
S1130200215080409040E1F700C000000E94DB00D4
S1130210E6CF8FEF85BB8CE790E00E94C50080ECB1
S11302200E9441008CE890E00E94C5002FEF80E717
S113023092E0215080409040E1F700C000000E940D
S10B0240DB00CDCFF894FFCFE1
S1130248202020202020416C657274212000204742
S1130258415320202020204C45414B004E4F202064
S11302682020202020202047415320002020202027
S10F02784445544543542020202020001D
S9030000FC
