:100000000C94E8000C94FD000C94FD000C94FD0091
:100010000C94FD000C94FD000C94FD000C94FD006C
:100020000C94FD000C94FD000C94FD000C94FD005C
:100030000C94FD000C94FD000C94FD000C94FD004C
:100040000C94FD000C94FD000C94FD000C94FD003C
:100050000C94FD0008000000BE922449123EABAA99
:10006000AA2ABECDCCCC4C3E00000080BEABAAAAD2
:10007000AA3E00000000BF000000803F000000001A
:1000800000084178D3BB4387D1133D190E3CC3BD53
:100090004282AD2B3E68EC8276BED98FE1A93E4C00
:1000A00080EFFFBE01C4FF7F3F0000000000076338
:1000B0004236B79BD8A71A39685618AEBAAB558CDA
:1000C0001D3CB7CC5763BD6DEDFD753EF617723123
:1000D000BF000000803F00407A10F35A00A0724E2B
:1000E00018090010A5D4E80000E87648170000E4DD
:1000F0000B54020000CA9A3B000000E1F505000025
:1001000080969800000040420F000000A086010089
:100110000000102700000000E80300000000640059
:10012000000000000A0000000000010000000000C4
:100130002C76D888DC674F0823DFC1DFAE59E1B1E8
:10014000B796E5E3E453C63AE651997696E8E6C2F7
:100150008426EB898C9B62ED407C6FFCEFBC9C9FFE
:1001600040F2BAA56FA5F490055A2AF75C936B6C20
:10017000F9676DC11BFCE0E40D47FEF520E6B50014
:10018000D0ED902E0300943577050080841E080082
:1001900000204E0A000000C80C333333330F986E32
:1001A00012831141EF8D2114893BE65516CFFEE6EF
:1001B000DB18D1844B381BF77C1D901DA4BBE424B5
:1001C000203284725E228100C9F124ECA1E53D2732
:1001D00011241FBECFE5D8E0DEBFCDBF10E0A0E602
:1001E000B0E0EAE9F3E102C005900D92A23CB1074C
:1001F000D9F70E94E1010C94CB090C9400008AB35A
:100200008E7F8ABB86B1876886B980E487B90895F6
:100210008770806487B986B1806486B9349BFECFCD
:1002200086B1806186B989EF90E00197F1F700C04F
:10023000000084B195B1089592B39F70282F207F5C
:10024000922B92BB92B39B7F92BB92B3986092BB6E
:10025000E3EDF0E33197F1F700C0000092B3977F30
:1002600092BB22B3F0E18F9FC0011124922F9F70A7
:10027000892B82BB82B3886082BB83ED90E30197B8
:10028000F1F700C0000082B3877F82BB089581B37D
:100290008C6F81BB83ED90E30197F1F700C0000004
:1002A00082B3877F82BB83ED90E30197F1F700C0B3
:1002B000000083E30E941C0182E30E941C0188E28B
:1002C0000E941C018CE00E941C0181E00E941C0124
:1002D00086E00E941C0189EF90E00197F1F700C0D1
:1002E0000000089592B39F70282F207F922B92BB1D
:1002F00092B3946092BB92B3986092BBE3EDF0E34B
:100300003197F1F700C0000092B3977F92BB22B300
:10031000F0E18F9FC0011124922F9F70892B82BB27
:1003200082B3886082BB83ED90E30197F1F700C050
:10033000000082B3877F82BB08950F931F93CF93F2
:100340008C01C0E003C00E947201CF5FF801EC0F86
:10035000F11D80818111F7CFCF911F910F910895E9
:10036000CF93DF9300D000D0CDB7DEB790E899836C
:1003700090EC9A8394E99B8394ED9C83E62FF0E0C4
:10038000319721E030E02C0F3D1FE20FF31F9081E9
:10039000890F81500E941C0131E23A95F1F700006B
:1003A0000F900F900F900F90DF91CF91089581E003
:1003B0000E941C0189EF90E00197F1F700C0000056
:1003C0000895CF93DF93CDB7DEB7E0970FB6F894DB
:1003D000DEBF0FBECDBF0E9447010E94FF008CE729
:1003E00090E00E949D010E94D30260936000709390
:1003F000610080936200909363008E010F5F1F4F36
:1004000022E046E00E940D070E94D70183EF91E0B1
:100410000197F1F700C000008BE890E00E949D0179
:1004200062E083E00E94B0018FE990E00E949D01AC
:10043000C8010E949D0183EA90E00E949D019FE710
:100440002AE186E0915020408040E1F700C00000A2
:100450000E94D70183EF91E00197F1F700C00000FF
:1004600061E081E00E94B00189EA90E00E949D0174
:1004700061E08DE00E94B0018EEA90E00E949D0153
:1004800062E081E00E94B00182EB90E00E949D0159
:1004900062E08DE00E94B0018EEA90E00E949D0132
:1004A0000E940E0320916000309161004091620033
:1004B000509163000E94E50340E050E00E94650314
:1004C0004AE0BE016F5E7F4F0E942D0761E085E02C
:1004D0000E94B001CE0141960E949D010E940E0330
:1004E0002091600030916100409162005091630062
:1004F0000E94E50341E050E00E9465034AE0BE012E
:100500006F5D7F4F0E942D0762E087E00E94B0017F
:10051000CE0181960E949D019FE72AE186E09150DD
:1005200020408040E1F700C0000061E085E00E94CB
:10053000B00189EB90E00E949D0162E087E00E949B
:10054000B0018BEB90E00E949D01AACFCF92DF9289
:10055000EF92FF92CF93DF93EC018FEF93E0BC011A
:100560006C1B7D0B072E000C880B990B0E948F04CF
:1005700020E030E040E251E40E946B056B017C0119
:10058000BE01DD0F880B990B0E948F049B01AC010B
:10059000C701B6010E94E503DF91CF91FF90EF9074
:1005A000DF90CF900895CF92DF92EF92FF92CF939A
:1005B000DF93C12CD12C7601C0E0D0E017C080E0E1
:1005C0000E9408010E94A6029B01AC01C701B6016E
:1005D0000E9479036B017C012FE986E891E02150AC
:1005E00080409040E1F700C000002196C233D10561
:1005F00034F320E030E048E452E4C701B6010E9441
:10060000E5032EEA37E44DE151E40E94E503DF9172
:10061000CF91FF90EF90DF90CF900895CF92DF922F
:10062000EF92FF92CF93DF93C12CD12C7601C0E0E3
:10063000D0E014C080E00E9408010E94A6029B0145
:10064000AC01C701B6010E9479036B017C0183ED07
:1006500090E30197F1F700C000002196C530D10565
:100660004CF320E030E040EA50E4C701B6010E94BC
:10067000E503DF91CF91FF90EF90DF90CF90089549
:10068000CF93DF93EA010E9423052C813D814E81A7
:100690005F810E947803288539854A855B850E94A1
:1006A000E503288139814A815B810E9479039B019E
:1006B000AC0160E070E080E291E40E94D8050E9405
:1006C0005704CB01DF91CF9108954115510529F4CD
:1006D00040E750E00E94400308954130510529F45D
:1006E00044E650E00E944003089580E090E00895C1
:1006F0005058BB27AA270E9490030C94E1040E9443
:10070000D30438F00E94DA0420F039F49F3F19F442
:1007100026F40C94D0040EF4E095E7FB0C94CA0484
:10072000E92F0E94F20458F3BA176207730784078F
:10073000950720F079F4A6F50C9414050EF4E095D5
:100740000B2EBA2FA02D0B01B90190010C01CA018B
:10075000A0011124FF27591B99F0593F50F4503E36
:1007600068F11A16F040A22F232F342F4427585F28
:10077000F3CF469537952795A795F0405395C9F740
:100780007EF41F16BA0B620B730B840BBAF09150F8
:10079000A1F0FF0FBB1F661F771F881FC2F70EC097
:1007A000BA0F621F731F841F48F48795779567956A
:1007B000B795F7959E3F08F0B0CF9395880F08F056
:1007C0009927EE0F9795879508950E94F9030C9449
:1007D000E1040E94DA0458F00E94D30440F029F4A6
:1007E0005F3F29F00C94CA0451110C9415050C9428
:1007F000D0040E94F20468F39923B1F3552391F3D6
:10080000951B550BBB27AA2762177307840738F07F
:100810009F5F5F4F220F331F441FAA1FA9F335D0DC
:100820000E2E3AF0E0E832D091505040E695001C90
:10083000CAF72BD0FE2F29D0660F771F881FBB1F4A
:10084000261737074807AB07B0E809F0BB0B802D28
:10085000BF01FF2793585F4F3AF09E3F510578F054
:100860000C94CA040C9415055F3FE4F3983ED4F34E
:10087000869577956795B795F7959F5FC9F7880F28
:10088000911D9695879597F90895E1E0660F771F7A
:10089000881FBB1F621773078407BA0720F0621B0B
:1008A000730B840BBA0BEE1F88F7E09508950E9436
:1008B0005E046894B1110C94150508950E94FA0421
:1008C00088F09F5798F0B92F9927B751B0F0E1F011
:1008D000660F771F881F991F1AF0BA95C9F714C0C1
:1008E000B13091F00E941405B1E008950C94140504
:1008F000672F782F8827B85F39F0B93FCCF38695FA
:1009000077956795B395D9F73EF490958095709556
:1009100061957F4F8F4F9F4F0895E89409C097FBD3
:100920003EF490958095709561957F4F8F4F9F4FC6
:100930009923A9F0F92F96E9BB279395F69587950A
:1009400077956795B795F111F8CFFAF4BB0F11F4CD
:1009500060FF1BC06F5F7F4F8F4F9F4F16C0882374
:1009600011F096E911C0772321F09EE8872F762FAA
:1009700005C0662371F096E8862F70E060E02AF0EB
:100980009A95660F771F881FDAF7880F96958795D7
:1009900097F9089597F99F6780E870E060E00895FF
:1009A0009FEF80EC089500240A9416161706180687
:1009B0000906089500240A94121613061406050663
:1009C0000895092E0394000C11F4882352F0BB0FF4
:1009D00040F4BF2B11F460FF04C06F5F7F4F8F4F57
:1009E0009F4F089557FD9058440F551F59F05F3F92
:1009F00071F04795880F97FB991F61F09F3F79F041
:100A000087950895121613061406551FF2CF4695C2
:100A1000F1DF08C0161617061806991FF1CF869544
:100A20007105610508940895E894BB276627772728
:100A3000CB0197F9089516F00C9462060C94D0043B
:100A400068940C94CA040E94FA04A8F39923C1F391
:100A5000AEF3DF93CF931F930F93FF92C92FDD2740
:100A600088232AF02197660F771F881FDAF720E086
:100A700030E040E85FEB9FE3883920F0803E38F0BB
:100A800021968F770E947903E4E5F0E004C00E948C
:100A90007903E1E8F0E00E9470068B01BE01EC01F1
:100AA000FB2E6F5771097595771F880B990B0E9464
:100AB0008F0428E132E741E35FE30E947E05AF2D1A
:100AC0009801AE01FF900F911F91CF91DF910E948D
:100AD00090030C94E1040E947E050C94E1040E94B2
:100AE000D30438F00E94DA0420F0952311F00C941E
:100AF000CA040C94D00411240C9415050E94F2042D
:100B000070F3959FC1F3950F50E0551F629FF00160
:100B1000729FBB27F00DB11D639FAA27F00DB11D79
:100B2000AA1F649F6627B00DA11D661F829F222702
:100B3000B00DA11D621F739FB00DA11D621F839F89
:100B4000A00D611D221F749F3327A00D611D231F5F
:100B5000849F600D211D822F762F6A2F11249F57AD
:100B600050409AF0F1F088234AF0EE0FFF1FBB1FB0
:100B7000661F771F881F91505040A9F79E3F51056F
:100B800080F00C94CA040C9415055F3FE4F3983E82
:100B9000D4F3869577956795B795F795E7959F5F19
:100BA000C1F7FE2B880F911D9695879597F90895AB
:100BB000FA01EE0FFF1F309621053105A1F16115F5
:100BC000710561F48038BFE39B0749F16894903860
:100BD000810561F08038BFEF9B0741F099234AF50A
:100BE000FF3FE1053105210519F1E8940894E795E7
:100BF000D901AA2329F4AB2FBE2FF85FD0F310C080
:100C0000FF5F70F4A695E0F7F73950F019F0FF3A5E
:100C100038F49F779F930DD00F9007FC905808955C
:100C200046F00C94D00460E070E080E89FE3089503
:100C30004FE79F775F934F933F932F930E94230536
:100C40002F913F914F915F910E946B050C9430065C
:100C500029F416F00C94CA040C9414050C94D004D6
:100C60000E94FA04A8F39638A0F707F80F92E894C8
:100C70002BE33AEA48EB5FE70E9481050F920F925F
:100C80000F924DB75EB70F920E94D906EEEAF0E0E0
:100C90000E9470064F915F91EF91FF91E595EE1FD5
:100CA000FF1F49F0FE57E0684427EE0F441FFA95F6
:100CB000E1F74195550B0E94A3060F9007FE0C9497
:100CC000970608959F3F31F0915020F487957795CE
:100CD0006795B795880F911D9695879597F9089513
:100CE000DF93CF931F930F93FF92EF92DF927B01DD
:100CF0008C01689406C0DA2EEF010E947E05FE0189
:100D0000E894A5912591359145915591A6F3EF0170
:100D10000E949003FE019701A801DA9469F7DF9021
:100D2000EF90FF900F911F91CF91DF9108959B015C
:100D3000AC0160E070E080E89FE30C94E5030C9464
:100D4000CA040C9462060E94FA04D8F39923C9F3EA
:100D5000940F511DA3F39150504094F059F0882303
:100D600032F0660F771F881F91505040C1F79E3FA9
:100D700051052CF7880F911D9695879597F9089541
:100D80005F3FACF0983E9CF0BB27869577956795C2
:100D9000B79508F4B1609395C1F7BB0F58F711F4FC
:100DA00060FFE8CF6F5F7F4F8F4F9F4FE3CF0C9473
:100DB0001505FA01DC01AA0FBB1F9B01AC01BF574F
:100DC00028F4222733274427507820C0B75190F4C5
:100DD000AB2F0024469537952795011CA395D2F398
:100DE000002071F0220F331F441FB395DAF30ED0A9
:100DF0000C94780361307105A0E88A07B94630F495
:100E00009B01AC016627772788279078309621F0E0
:100E100020833183428353830895EF920F931F936E
:100E2000CF93DF93E80147FD02C034E001C034E115
:100E3000042E000C550B57FF03C0519541955109E5
:100E4000E32E022F242FAE010E945207CE01DF9124
:100E5000CF911F910F91EF900895BB274A3031F445
:100E6000992322F4BDE2909581959F4F0C94390708
:100E7000BB27FB015527AA27880F991FAA1FA41774
:100E800010F0A41B83955051B9F7A05DAA3308F068
:100E9000A95DA193009779F7B111B1931192CB019C
:100EA0000C948409A9E0B0E0E8E5F7E00C949A0915
:100EB0006A01122FB02E2BE3201720F0FF24F394A9
:100EC000F00E02C02CE3F22E0F2D27E0AE014F5F93
:100ED0005F4F0E94AC08BC014981842F897081302A
:100EE00031F0E1FC06C0E0FE06C090E205C09DE2E4
:100EF00003C09BE201C090E05E2D507143FF3CC0F7
:100F0000911102C083E001C084E0811718F4212F01
:100F1000281B01C020E051110BC0F601822F30E2E6
:100F2000882319F031938150FBCFC20ED11C20E0F1
:100F3000992329F0D6019C93F60131966F01C601E1
:100F40000396E2FE0AC03EE4D6013C9341E41196CA
:100F50004C93119712963C9306C03EE6F6013083FF
:100F600041E641833283FC01322F40E2332309F40E
:100F700042C041933150FACF42FF44C0911102C0A8
:100F800083E001C084E0811718F4212F281B01C0E1
:100F900020E051110BC0F601822F30E2882319F0B6
:100FA00031938150FBCFC20ED11C20E0992329F050
:100FB000D6019C93F60131966F01C6010396E2FEBD
:100FC0000BC039E4D6013C933EE411963C93119753
:100FD00036E412963C9307C039E6F60130833EE6CC
:100FE000318336E63283FC01322F40E2332319F09D
:100FF00041933150FBCFFC01E20FF11D10828EEFC7
:101000009FEFA6C021E030E0911102C020E030E067
:10101000161617061CF4FB01319602C0E1E0F0E061
:101020002E0F3F1FBB2021F0EB2DF0E0319602C0C8
:10103000E0E0F0E02E0F3F1FE12FF0E02E173F071A
:101040001CF4121B212F01C020E08E2D887159F451
:10105000F601822F30E2882319F031938150FBCFC3
:10106000C20ED11C20E0992329F0D6019C93F601F1
:1010700031966F0151110BC0F601822F90E3882346
:1010800019F091938150FBCFC20ED11C20E00F2D9F
:10109000060F9A81342F307144FF03C0913309F455
:1010A0000150101624F4093018F008E001C001E0E6
:1010B000AB0177FF02C040E050E0FB01E41BF50B01
:1010C000A1E0B0E0AC0FBD1FEA0FFB1F8EE2A82E1F
:1010D0004B01801A91080B2D10E011950195110913
:1010E0004F3FBFEF5B0721F4D601AC9211966D0123
:1010F000641775072CF08416950614F4818101C0DD
:1011000080E3415051093196D60111967D01401777
:10111000510724F0D6018C936701E2CF641775075D
:1011200039F4963320F4953319F4311101C081E379
:10113000F6018083F701822F90E2882319F09193C2
:101140008150FBCFF701E20FF11D108280E090E0AB
:101150002996ECE00C94B609283008F027E03327F4
:10116000DA01990F311D87FD9160009661057105C7
:1011700039F432602E5F3D9330E32A95E1F708950C
:101180009F3F30F080387105610509F03C5F3C5F9E
:101190003D93913008F08068911DDF93CF931F93AA
:1011A0000F93FF92EF92192F987F9695E92F9695BE
:1011B0009695E90FFF27E05DFE4F99273327EE2430
:1011C000FF24A701E70105900894079428F4360F3F
:1011D000E71EF81E491F511D660F771F881F991FB4
:1011E0000694A1F70590079428F4E70EF81E491F0E
:1011F000561FC11D770F881F991F661F0694A1F700
:101200000590079428F4F80E491F561FC71FD11DDB
:10121000880F991F661F771F0694A1F70590079402
:1012200020F4490F561FC71FD81F990F661F771F3D
:10123000881F0694A9F784911095177041F0D695F0
:10124000C79557954795F794E7941A95C1F7E6ED3A
:10125000F0E0689415901591359165919591059000
:101260007FE27395E118F10A430B560BC90BD009C5
:10127000C0F7E10CF11E431F561FC91FD01D7EF49D
:10128000703311F48A95E6CFE894015030F0080FDE
:101290000AF40027021708F4202F2395022F7A332F
:1012A00028F079E37D932A95E9F710C07D932A957C
:1012B00089F6069497956795379517951794E118D1
:1012C000F10A430B560BC90BD00998F023957E9178
:1012D00073957A3308F070E37C932013B8F77E910E
:1012E00070617D9330F0839571E37D9370E32A956F
:1012F000E1F71124EF90FF900F911F91CF91DF91B3
:10130000992787FD90950895DC01FC01672F719165
:101310007723E1F7329704C07C916D9370836291DB
:10132000AE17BF07C8F308952F923F924F925F9276
:101330006F927F928F929F92AF92BF92CF92DF92E5
:10134000EF92FF920F931F93CF93DF93CDB7DEB74A
:10135000CA1BDB0B0FB6F894DEBF0FBECDBF0994DE
:101360002A88398848885F846E847D848C849B8435
:10137000AA84B984C884DF80EE80FD800C811B8143
:10138000AA81B981CE0FD11D0FB6F894DEBF0FBE72
:0A139000CDBFED010895F894FFCFE2
:10139A00000020413333134014AE073FF628DCBE69
:1013AA0033331340CDCC4C3E6666E6BE43616C696E
:1013BA0062726174696E672E2E2E0043616C6962D7
:1013CA00726174696F6E20646F6E652E2E2E0052E4
:1013DA006F3D004B4F686D20004C50473A0050500B
:1013EA004D00534D4F4B453A00202020202020200D
:0213FA002000D1
:00000001FF
